:020000020000FC
:020000000DC031
:0C000400C2D0FF2049F401E0F02EA4C09F
:10001A0000C00FE50DBF02E00EBFC9D0C1D0B0D0FD
:10002A0000E0F02E902E70E002E0802E0FEF0ABB67
:10003A0007BB00E001BBF2E0E4E0C895402D0020D8
:10004A00E1F14C3291F104E0F01611F04E3261F018
:10005A004E3221F0342FC6D0319679F77A1549F409
:10006A0032ECC0D0319649F704E0F01611F4E716E5
:10007A00A9F301E0A5BA713029F0723031F0743079
:10008A0039F009C0D01661F006C0C01649F003C0A5
:10009A00B01631F000C0770F3FEFA4D0319669F661
:1000AA00770F3BED9FD0319641F6D99820EC28BBCB
:1000BA00D89AD8986BD03196C0CF03E0F01639F4AD
:1000CA0001E0F02E74D0F2E0E8E271E0B6CF04E08D
:1000DA00F016E9F102E0F01629F458D057D056D0BC
:1000EA0055D097CF00E0801659F1F01631F300B3DE
:1000FA00A0B2013029F0023059F0043089F0DDCF86
:10010A0001E0D016D1F2D02E01E0E01689F02FC01E
:10011A0001E0C01691F2C02E02E0E01649F027C0B5
:10012A0001E0B01651F2B02E04E0E01609F01FC04B
:10013A0001E0900E04E0F02E3AD0F2E0E8E87DCF3C
:10014A0036D0F2E0E6E402E0F02E77CFF9CF00E015
:10015A00D02EC02EB02E04E0E02E29D0F2E0E8E244
:10016A0002E032E0832E01E0702FF02E66CF03E02A
:10017A00F02E01E0801A1BD0F2E0E6E65ECF00E046
:10018A0000E80BBF0AE005BF7894089541E059E101
:10019A0069E16A95F1F75A95E1F74A95D1F7089519
:1001AA0000E004BB089500E004BB05BB0895D9989C
:1001BA0028E328BBD89AD898E9DFD9982CE028BB3D
:1001CA00D89AD898E3DF07D0D99826E028BBD89ADE
:1001DA00D898DCDF0895D99821E028BBD89AD89816
:1001EA00D5DF0895D99A38BBD89AD898CFDF089521
:1001FA00D99A38BBD89AD898089546696E6420541B
:10020A00686520536D696C6579212C2E20507265C2
:10021A00737320205374617274202E000000576893
:10022A00696368277320626F783F2C20202E202074
:10023A0020202E202020202E202000004E6F204D2E
:10024A006F72652043686F6963652C2020205F5FA9
:10025A005F596F75204C4F53452100004F68204E5F
:10026A006F212057524F4E4720424F582C202020B2
:10027A002054727920416761696E21000000596F2C
:10028A007520666F756E64206974202E20212C54A7
:10029A00616B65206427206E657874206F6E650037
:0202AA00000052
:00000001FF
