:020000020000FC
:020000000CC032
:10000800E6D000E0F01629F401E0F02EC0C00C9410
:100018008F010FE50DBF04E00EBFEDD0D8D00FEF74
:100028000ABB07BB00E004BB00E0F02E902E70E096
:1000380002E0802EF2E0EAE5C895402D0020C1F1EB
:100048004C32A9F14E3221F0342FF0D03196A1F77D
:1000580004E0F01611F47A1579F401E0F01661F075
:1000680003E0F01649F002E0F01631F032ECDED091
:10007800319611F7E71661F301E0713029F072301B
:1000880031F0743039F009C0D01661F006C0C016DE
:1000980049F003C0B01631F000C0770F3FEFC6D06B
:1000A800319651F6770F3BEDC1D0319629F687C0CE
:1000B80003E0F01639F401E0F02E9DD0F2E0EEE70F
:1000C80071E0BACF06E0F01611F40C94C10005E017
:1000D800F016A1F004E0F016A1F102E0F016F9F133
:1000E80000E08016A1F1F01619F300B3A0B20130B8
:1000F80031F0023061F0043091F0DACF48C001E00D
:10010800D016B1F2D02E01E0E01689F050C001E01F
:10011800C01671F2C02E02E0E01649F048C001E0B6
:10012800B01631F2B02E04E0E01609F040C001E04C
:10013800900E04E0F02E5FD0F2E0EEE701E0702FC1
:100148007BCF05E0F02E57D0F2E0E2EE75CF53D02A
:10015800F2E0ECE902E0F02E6FCF30E03083F0E01F
:10016800E0E600810F3FC9F3091508F052CF43D0EC
:10017800F3E0E6E006E0F02E5FCFB0E0AAE6CBD0F1
:10018800302D54D00C921196A437C9F742CF00E015
:10019800D02EC02EB02E04E0E02E2DD0F2E0EEE7F7
:1001A80002E032E0832E01E0702FF02E45CF03E00D
:1001B800F02E01E0801A1FD0F2E0E0EC3DCF9598D8
:1001C80020EC2BBB949A949808D0319635CF00E850
:1001D8000BBF0AE005BF7894089541E059E169E151
:1001E8006A95F1F75A95E1F74A95D1F7089500E035
:1001F80004BB05BB0895959828E32BBB949A949863
:10020800ECDF95982CE02BBB949A9498E6DF07D006
:10021800959826E02BBB949A9498DFDF08959598DB
:1002280021E02BBB949A9498D8DF0895959A3BBB0C
:10023800949A9498D2DF0895959A3BBB949A94988F
:10024800089524E332EF3A95F1F72A95E1F7000093
:10025800089546696E642054686520536D696C651D
:1002680079212C2E2050726573732020537461728B
:1002780074202E0000005768696368277320626F36
:10028800783F2C20202E202020202E202020202EB9
:100298002020000020202020594F55204C4F534546
:1002A800202020202C204E6F206D6F7265206368FF
:1002B8006F696365200000004F68204E6F2120574A
:1002C800524F4E4720424F582C20202020547279FC
:1002D80020416761696E21000000596F7520666FC3
:1002E800756E64206974202E20212C54616B652062
:1002F8006427206E657874206F6E650000004E6577
:1003080077204869676873636F72652121212C4ED5
:10031800504D3A00000000EF07BB0FE008BB0FE0AC
:1003280008BB06B3006F0F3FF1F08BDFF3E0E0E7A7
:100338000FE308BB06B3006F0F3F71F434960FE567
:1003480008BB06B3006F0F3F39F434960FE608BBBD
:1003580006B3006F0F3F39F0069510F43196FCCFC5
:10036800C89508D00895E1CF3336390B3235383087
:060378003134370A08953C
:00000001FF
