:020000020000FC
:020000000DC031
:0C00040049D0FF2049F401E0F02E40C07C
:10001A0000C00FE50DBF02E00EBF55D04DD037D05E
:10002A0000E0F02E03E0E02E0FEF0ABB07BB00E072
:10003A0001BBF1E0ECE1C895402D0020E9F04C321B
:10004A0099F001E0F01611F04E3231F04E3241F0E3
:10005A00342F54D0319679F732EC50D0319659F783
:10006A003BED4CD0319639F7D99820EC28BBD89A79
:10007A00D89818D03196DFCF00E0F016E9F300B334
:10008A00013039F2F9CF1FD0F1E0EEE3D4CF00E826
:10009A0005BB0BBF0AE005BF00E006BF00EE0ABFC2
:1000AA007894089541E055E465E46A95F1F75A9524
:1000BA00E1F74A95D1F7089500E004BB089500E0FE
:1000CA0004BB05BB0895D99828E328BBD89AD898C9
:1000DA00E9DFD9982CE028BBD89AD898E3DF07D073
:1000EA00D99826E028BBD89AD898DCDF0895D99801
:1000FA0021E028BBD89AD898D5DF0895D99A38BB79
:10010A00D89AD898CFDF0895D99A38BBD89AD89870
:10011A00089546696E642054686520536D696C655C
:10012A00792C2E2050726573732020537461727477
:10013A00202E00005768696368277320626F783F32
:10014A002C20202E202020202E202020202E20206F
:02015A000000A3
:00000001FF
