:020000020000FC
:1000000040C041E055E465E46A95F1F75A95E1F79F
:100010004A95D1F7089530B33030E9F3089521E0DF
:1000200025BBEFDF22E025BBECDF24E025BBE9DFC9
:1000300028E025BBE6DF20E125BBE3DF20E225BB8E
:10004000E0DF20E425BBDDDF20E825BBDADF089513
:100050002FE025BBD6DF20EF25BBD3DF2FE025BB6C
:10006000D0DF20EF25BBCDDF2FE025BBCADF20EF9F
:1000700025BBC7DF2FE025BBC4DF20EF25BBC1DFD9
:1000800008952FE52DBF22E02EBF2FEF24BB20E0E7
:0E00900021BBC1DF313119F23230D1F2FACF8B
:00000001FF
