:020000020000FC
:020000000DC031
:0C000400AED0FF2049F401E0F02E93C0C4
:10001A0000C00FE50DBF02E00EBFB6D0AED09CD037
:10002A0000E0F02E902E70E002E0802E0FEF0ABB67
:10003A0007BB00E001BBF1E0EEEDC895402D0020C2
:10004A0099F14C3249F101E0F01611F04E3231F0DB
:10005A004E3241F0342FB3D0319679F732ECAFD02B
:10006A00319659F701E0700F713029F0723031F092
:10007A00733039F009C0D01659F006C0C01641F0E5
:10008A0003C0B01629F000C03FEF99D03196A9F607
:10009A003BED95D0319689F6D99820EC28BBD89AB1
:1000AA00D89861D03196C9CF03E0F01639F401E04F
:1000BA00F02E6AD0F2E0E2E070E0BFCF02E0F01684
:1000CA0029F451D050D04FD04ED0A3CF00E08016A3
:1000DA0031F1F01649F300B3A0B2013029F0023031
:1000EA0059F0043089F0E0CF01E0D016E9F2D02EC1
:1000FA0001E0E01689F027C001E0C016A9F2C02E7F
:10010A0002E0E01649F01FC001E0B01669F2B02E15
:10011A0004E0E01609F017C001E0900E07C034D0E1
:10012A00F2E0E0E202E0F02E88CFF9CF00E0D02E34
:10013A00C02EB02E04E0E02E27D0F2E0E2E002E08A
:10014A0032E0832E7ACF03E0F02E01E0801A1CD031
:10015A00F2E0ECE372CF00E000E805BB0BBF0AE077
:10016A0005BF7894089541E059E169E16A95F1F78C
:10017A005A95E1F74A95D1F7089500E004BB08952E
:10018A0000E004BB05BB0895D99828E328BBD89A98
:10019A00D898E9DFD9982CE028BBD89AD898E3DF19
:1001AA0007D0D99826E028BBD89AD898DCDF0895DA
:1001BA00D99821E028BBD89AD898D5DF0895D99A3A
:1001CA0038BBD89AD898CFDF0895D99A38BBD89A2D
:1001DA00D898089546696E642054686520536D69FD
:1001EA006C6579212C2E205072657373202053740C
:1001FA00617274202E0000005768696368277320B3
:10020A00626F783F2C20202E202020202E202020B4
:10021A00202E2020000047616D65204F7665722CE4
:10022A002020205F5F5F596F75204C4F5345210096
:10023A0000004F68204E6F212057524F4E472042F0
:10024A004F582C2020202054727920416761696E12
:10025A0021000000596F7520666F756E64206974FD
:0E026A00212C20436F6E6772617473210000B7
:00000001FF
