:020000020000FC
:020000000CC032
:10000800CDD000E0F01629F401E0F02E00C00C94E9
:1000180062010FE50DBF04E00EBFD4D0BFD00FEFD3
:100028000ABB07BB00E004BB00E0F02E902E70E096
:1000380002E0802EF2E0E8E1C895402D0020C1F1F1
:100048004C32A9F14E3221F0342FD7D03196A1F796
:1000580004E0F01611F47A1579F401E0F01661F075
:1000680003E0F01649F002E0F01631F032ECC5D0AA
:10007800319611F7E71661F301E0713029F072301B
:1000880031F0743039F009C0D01661F006C0C016DE
:1000980049F003C0B01631F000C0770F3FEFADD084
:1000A800319651F6770F3BEDA8D0319629F66EC000
:1000B80003E0F01639F401E0F02E84D0F2E0ECE32E
:1000C80071E0BACF05E0F016C9F004E0F016C9F106
:1000D80002E0F01629F468D067D066D065D099CFD1
:1000E80000E08016A1F1F01619F300B3A0B20130B8
:1000F80031F0023061F0043091F0DACF2FC001E026
:10010800D016B1F2D02E01E0E01689F037C001E038
:10011800C01671F2C02E02E0E01649F02FC001E0CF
:10012800B01631F2B02E04E0E01609F027C001E065
:10013800900E04E0F02E46D0F2E0ECE301E0702FE0
:100148007BCF05E0F02E3ED0F2E0E0EA75CF3AD062
:10015800F2E0EAE502E0F02E6FCFF9CF00E0D02E12
:10016800C02EB02E04E0E02E2DD0F2E0ECE302E049
:1001780032E0832E01E0702FF02E5ECF03E0F02EE8
:1001880001E0801A1FD0F2E0EEE756CF959820ECF8
:100198002BBB949A949808D031964ECF00E80BBFA9
:1001A8000AE005BF7894089541E059E169E16A954C
:1001B800F1F75A95E1F74A95D1F7089500E004BBA5
:1001C80005BB0895959828E32BBB949A9498ECDF87
:1001D80095982CE02BBB949A9498E6DF07D09598D5
:1001E80026E02BBB949A9498DFDF0895959821E038
:1001F8002BBB949A9498D8DF0895959A3BBB949A10
:100208009498D2DF0895959A3BBB949A9498089550
:1002180046696E642054686520536D696C65792160
:100228002C2E2050726573732020537461727420D1
:100238002E0000005768696368277320626F783F53
:100248002C20202E202020202E202020202E202070
:10025800000020202020594F55204C4F5345202086
:1002680020202C204E6F206D6F72652063686F69A7
:100278006365200000004F68204E6F212057524FC1
:100288004E4720424F582C2020202054727920417C
:100298006761696E21000000596F7520666F756E81
:1002A80064206974202E20212C54616B65206427FA
:1002B800206E657874206F6E6500000000EF07BB44
:1002C8000FE008BB0FE008BB06B3006F0F3F59F102
:1002D80024E332EF3A95F1F72A95E1F70000F3E0CD
:1002E800E0E30FE708BB06B3006F0F3FA9F43496AD
:1002F8000FEB08BB06B3006F0F3F71F434960FED98
:1003080008BB06B3006F0F3F39F434960FEE08BBF5
:1003180006B3006F0F3F39F0069510F43196FCCF05
:10032800C8950AD0D5CFD4CFFFF00F000306090B2C
:10033800020508000104070A05BA089500E005BB94
:02034800089516
:00000001FF
