:020000020000FC
:020000000DC031
:0C000400A7D0FF2049F401E0F02E8FC0CF
:10001A0000C00FE50DBF02E00EBFAFD0A7D095D04C
:10002A0000E0F02E902E70E00FEF0ABB07BB00E055
:10003A0001BBF1E0E0EDC895402D002099F14C326A
:10004A0049F101E0F01611F04E3231F04E3241F032
:10005A00342FAED0319679F732ECAAD0319659F7CF
:10006A0001E0700F713029F0723031F0733039F0DD
:10007A0009C0D01659F006C0C01641F003C0B01628
:10008A0029F000C03FEF94D03196A9F63BED90D00D
:10009A00319689F6D99820EC28BBD89AD8985CD0A2
:1000AA003196C9CF03E0F01639F401E0F02E65D09D
:1000BA00F1E0E2EF70E0BFCF02E0F01629F44CD095
:1000CA004BD04AD049D0A5CF00E0F01659F300B37F
:1000DA00A0B2013029F0023059F0043089F0E2CFA1
:1000EA0001E0D016F9F2D02E01E0E01689F026C020
:1000FA0001E0C016B9F2C02E02E0E01649F01EC0B7
:10010A0001E0B01679F2B02E04E0E01609F016C04C
:10011A0001E0900E07C031D0F2E0E0E102E0F02EFB
:10012A008ACFF9CF00E0D02EC02EB02E04E0E02E08
:10013A0024D0F1E0E2EF01E0802E7DCF03E0F02E43
:10014A001CD0F2E0E6E277CF00E000E805BB0BBF87
:10015A000AE005BF7894089541E051E061E06A95AC
:10016A00F1F75A95E1F74A95D1F7089500E004BBF3
:10017A00089500E004BB05BB0895D99828E328BB7D
:10018A00D89AD898E9DFD9982CE028BBD89AD89879
:10019A00E3DF07D0D99826E028BBD89AD898DCDFC5
:1001AA000895D99821E028BBD89AD898D5DF089520
:1001BA00D99A38BBD89AD898CFDF0895D99A38BB3C
:1001CA00D89AD898089546696E6420546865205371
:1001DA006D696C65792C2E205072657373202053DB
:1001EA0074617274202E000057686963682773204F
:1001FA00626F783F2C20202E202020202E202020C5
:10020A00202E2020000047616D65204F7665722CF4
:10021A0020596F75204C6F73652100004F68204E7E
:10022A006F212057524F4E4720424F582C747279F3
:10023A0020616761696E21000000596F7520666F41
:10024A00756E64206974212C20436F6E6772617425
:04025A00732100000C
:00000001FF
