:020000020000FC
:020000002AC014
:0E00080041D100E0F01619F501E0F02E05C11F
:02001C00189535
:1000240000C081E0980F85B3882319F40AD00C949A
:10003400D10095300CF4189585B3880F85BB90E0FA
:10004400189500E003BF089504E003BF08950C94DD
:10005400EA010FE50DBF04E00EBF02E00EBD09E0AA
:1000640008BF03EF08BD02EF09BD09E009BF0FEFA8
:100074000ABB04BB00E007BB1BD106D1E2DF00E0F2
:10008400F02E902E70E090E002E0802EF3E0E0E1AC
:10009400C895402D0020C9F14C32B1F14E3221F007
:1000A400342F21D13196A1F704E0F01611F47A151A
:1000B40081F401E0F01669F003E0F01651F002E07B
:1000C400F01639F0770F32EC0ED1319609F7E716B6
:1000D40059F301E0713029F0723031F0743039F0A5
:1000E40009C0D01661F006C0C01649F003C0B016AE
:1000F40031F000C0770F3FEFF6D0319649F6770F15
:100104003BEDF1D0319621F6B7C003E0F01639F497
:1001140001E0F02ECDD0F3E0E4E371E0B9CF06E0E6
:10012400F01621F40C9401010C94E10005E0F016A2
:10013400B9F004E0F016C1F302E0F01679F000E043
:10014400801669F1F01609F300B3A0B2013051F042
:10015400023089F00430C1F077DFD7CF0C94E90086
:100164000C94100101E0D01681F2D02E6ADF01E078
:10017400E016D9F079C001E0C01639F2C02E61DF73
:1001840002E0E01691F070C001E0B01631F0B02E3C
:1001940058DF04E0E01649F067C00C94870088D06B
:1001A400F3E0E2E502E0F02E73CF01E0900E04E00C
:1001B400F02E7ED0F3E0E4E301E0702F69CF05E098
:1001C400F02E76D0F3E0E8E963CF30E03083F0E05E
:1001D400E0E600810F3FC9F3091508F03ACF68D073
:1001E400F3E0ECEB06E0F02EB0E0A0E69C92B0E089
:1001F400AAE600E00C931196A437D9F749CFB0E0F2
:10020400AAE6E6D000EF001639F0302D6CD00C923F
:100214001196A437B1F71DCF0C942B0000E0D02E1B
:10022400C02EB02E8DB58370803029F0813031F02E
:10023400823039F049F401E0E02E09C002E0E02EFA
:1002440006C004E0E02E03C001E0E02E00C030D080
:10025400F3E0E4E302E032E0832E01E0702FF02EBD
:100264000FEF05BBF1DE14CF03E0F02E01E0801A9E
:100274001FD0F3E0E6E70CCF959820EC2BBB949AC3
:10028400949808D0319604CF00E80BBF0AE005BF6C
:100294007894089541E059E169E16A95F1F75A9536
:1002A400E1F74A95D1F7089500E004BB05BB089532
:1002B400959828E32BBB949A9498ECDF95982CE0BE
:1002C4002BBB949A9498E6DF07D0959826E02BBB35
:1002D400949A9498DFDF0895959821E02BBB949A23
:1002E4009498D8DF0895959A3BBB949A9498D2DF5A
:1002F4000895959A3BBB949A9498089524E332EF19
:100304003A95F1F72A95E1F70000089546696E647D
:100314002054686520536D696C6579212C2E20501A
:100324007265737320205374617274202E00000070
:100334005768696368277320626F783F2C20202EEA
:10034400202020202E202020202E202000002020CD
:100354002020594F55204C4F5345202020202C203D
:100364004E6F206D6F72652063686F69636520004E
:1003740000004F68204E6F212057524F4E472042B5
:100384004F582C2020202054727920416761696ED7
:1003940021000000596F7520666F756E64206974C2
:1003A400202E20212C54616B65206427206E6578F3
:1003B40074206F6E650000004E6577204869676899
:1003C40073636F72652121212C4E504D3A00000059
:1003D40000EF07BB0FE008BB0FE008BB06B3006FDC
:1003E4000F3FF1F08BDFF4E0E6E20FE308BB06B366
:1003F400006F0F3F71F434960FE508BB06B3006F2E
:100404000F3F39F434960FE608BB06B3006F0F3F75
:1004140039F0069510F43196FCCFC89508D00895AC
:10042400E1CF333639F032353830313437F008958E
:00000001FF
