:020000020000FC
:0200000007C037
:10000400CCD0FF2019F401E0F02EA7C00FE50DBFFE
:1000140002E00EBFD9D0D1D0C0D000E0F02E902E97
:1000240070E002E0802E0FEF0ABB07BB00E001BBCB
:10003400F2E0E8E1C895402D0020C9F14C32B1F15D
:100044004E3221F0342FDBD03196A1F704E0F016C4
:1000540011F47A1579F401E0F01661F003E0F0167A
:1000640049F002E0F01631F032ECC9D0319611F7C4
:10007400E71661F301E0A5BA713029F0723031F06E
:10008400743039F009C0D01661F006C0C01649F0CA
:1000940003C0B01631F000C0770F3FEFB0D03196F7
:1000A40049F6770F3BEDABD0319621F66EC003E0F5
:1000B400F01639F401E0F02E87D0F2E0ECE371E0C1
:1000C400B9CF05E0F016C9F004E0F016C9F102E07A
:1000D400F01629F468D067D066D065D097CF00E0D9
:1000E4008016A1F1F01619F300B3A0B2013031F07B
:1000F400023061F0043091F0DACF2FC001E0D01665
:10010400B1F2D02E01E0E01689F037C001E0C0164C
:1001140071F2C02E02E0E01649F02FC001E0B016E3
:1001240031F2B02E04E0E01609F027C001E0900E91
:1001340004E0F02E49D0F2E0ECE301E0702F7ACF36
:1001440005E0F02E41D0F2E0ECE974CF3DD0F2E0CE
:10015400EAE502E0F02E6ECFF9CF00E0D02EC02EFB
:10016400B02E04E0E02E30D0F2E0ECE302E032E026
:10017400832E01E0702FF02E5DCF03E0F02E01E01E
:10018400801A22D0F2E0EAE755CFD99820EC28BBB8
:10019400D89AD89808D031964DCF00E80BBF0AE022
:1001A40005BF7894089541E059E169E16A95F1F752
:1001B4005A95E1F74A95D1F7089500E004BB0895F4
:1001C40000E004BB05BB0895D99828E328BBD89A5E
:1001D400D898E9DFD9982CE028BBD89AD898E3DFDF
:1001E40007D0D99826E028BBD89AD898DCDF0895A0
:1001F400D99821E028BBD89AD898D5DF0895D99A00
:1002040038BBD89AD898CFDF0895D99A38BBD89AF2
:10021400D898089546696E642054686520536D69C2
:100224006C6579212C2E20507265737320205374D1
:10023400617274202E000000576869636827732078
:10024400626F783F2C20202E202020202E2020207A
:10025400202E202000004E6F204D6F7265204368D1
:100264006F6963652C2020205F5F5F596F75204C98
:100274004F53452100004F68204E6F212057524FA5
:100284004E4720424F582C20202020547279204180
:100294006761696E21000000596F7520666F756E85
:1002A40064206974202E20212C54616B65206427FE
:0C02B400206E657874206F6E65000000FD
:00000001FF
