:020000020000FC
:020000000DC031
:0400040030D00AC02E
:10001A0000C00FE50DBF02E00EBF3CD034D01ED0A9
:10002A000FEF0ABB07BBF0E0EAEEC895402D0020AF
:10003A00A1F04C3251F04E3221F0342F46D0319695
:10004A00A1F732EC42D0319681F7D99820EC28BB3F
:10005A00D89AD8980ED03196E8CFFFCF00E805BBE2
:10006A000BBF0AE005BF00E006BF00EE0ABF7894A6
:10007A00089541E055E465E46A95F1F75A95E1F788
:10008A004A95D1F7089500E004BB089500E004BB47
:10009A0005BB0895D99828E328BBD89AD898E9DFF0
:1000AA00D9982CE028BBD89AD898E3DF07D0D998FA
:1000BA0026E028BBD89AD898DCDF0895D99821E0A1
:1000CA0028BBD89AD898D5DF0895D99A38BBD89A38
:1000DA00D898CFDF0895D99A38BBD89AD898089576
:1000EA0046696E642054686520536D696C65792C85
:1000FA002E20507265737320205374617274202EFF
:02010A000000F3
:00000001FF
