:020000020000FC
:100000000FE50DBF02E00EBF17D00FEF0ABB07BB15
:10001000F0E0EAE7C895002021F0302D28D0319695
:10002000F9CFFFCF41E055E465E46A95F1F75A95C1
:10003000E1F74A95D1F70895D99828E328BBD89AD3
:10004000D898F0DFD9982EE028BBD89AD898EADF64
:1000500007D0D99826E028BBD89AD898E3DF08952E
:10006000D99821E028BBD89AD898DCDF0895D99A8E
:1000700038BBD89AD898D6DF089546696E64205464
:10008000686520536D696C65792C507265737320B7
:0800900053746172740000005A
:00000001FF
